:100000000C9434000C9451000C9451000C94510049
:100010000C9451000C9451000C9451000C9451001C
:100020000C9451000C9451000C9451000C9451000C
:100030000C9451000C9451000C9451000C945100FC
:100040000C9451000C9451000C9451000C945100EC
:100050000C9451000C9491010C9451000C9451009B
:100060000C9451000C94510011241FBECFEFD8E026
:10007000DEBFCDBF11E0A0E0B1E0ECE9F7E002C0E7
:1000800005900D92AE31B107D9F721E0AEE1B1E0B4
:1000900001C01D92A732B207E1F70E940B020C9437
:1000A000CC030C94000082E68093B80084E0809337
:1000B000BC001092B900089584EA8093BC00ECEB78
:1000C000F0E080818823ECF708958093BB0084E8FA
:1000D0008093BC00ECEBF0E080818823ECF708957E
:1000E000992354F4089521503109E9F74F5F5F4F88
:1000F000841795071CF4089540E050E029E730E0AC
:10010000F2CFEBEBF0E080818260808384E8809323
:10011000BC00ECEBF0E080818823ECF781E090E01C
:100120000E947000EBEBF0E080818D7F808384E89B
:100130008093BC00ECEBF0E080818823ECF708951D
:10014000EBEBF0E090819E7F908394E89093BC006D
:10015000ECEBF0E090819923ECF7EBEBF0E0908191
:100160009F70908394E89093BC00ECEBF0E090815A
:100170009923ECF7EBEBF0E09081807F892B808373
:1001800084E88093BC00ECEBF0E080818823ECF7FE
:100190000E9481000895CF93C82FEBEBF0E080819F
:1001A0008E7F808384E88093BC00ECEBF0E080815C
:1001B0008823ECF7EBEBF0E080818F70808384E89C
:1001C0008093BC00ECEBF0E080818823ECF7EBEB54
:1001D000F0E080819C2F907F892B808384E880933E
:1001E000BC00ECEBF0E080818823ECF70E948100FA
:1001F000EBEBF0E080818F70808384E88093BC001B
:10020000ECEBF0E080818823ECF7EBEBF0E0208171
:1002100030E1C39FC0011124822B808384E8809346
:10022000BC00ECEBF0E080818823ECF70E948100B9
:10023000CF91089580E30E94A00080E30E94A00077
:1002400080E20E94A00088E20E94CB008CE00E9425
:10025000CB0081E00E94CB0086E00E94CB0080E8CA
:100260000E94CB000895CF93C82FEBEBF0E0808184
:100270008160808384E88093BC00ECEBF0E08081B7
:100280008823ECF7EBEBF0E080818F70808384E8CB
:100290008093BC00ECEBF0E080818823ECF7EBEB83
:1002A000F0E080819C2F907F892B808384E880936D
:1002B000BC00ECEBF0E080818823ECF70E94810029
:1002C000EBEBF0E080818F70808384E88093BC004A
:1002D000ECEBF0E080818823ECF7EBEBF0E02081A1
:1002E00030E1C39FC0011124822B808384E8809376
:1002F000BC00ECEBF0E080818823ECF70E948100E9
:10030000CF910895CF93DF93EC018881882331F05A
:1003100021960E94330189918111FBCFDF91CF910A
:1003200008951F920F920FB60F9211248F939F93EF
:1003300080917800909179009093200180931F0123
:100340009F918F910F900FBE0F901F901895CF9394
:10035000DF93EC01FB0113829C01ADECBCEC0E942D
:10036000BD03AC01569547955695479556954795CB
:100370009A01220F331FCA01880F991F880F991FF6
:10038000880F991F820F931F9E01281B390BC901EB
:10039000805D82839A010E94BD039695879596950C
:1003A0008795969587959C01220F331F880F991F7B
:1003B000880F991F880F991F820F931F481B590B95
:1003C000405D41839E013695279536952795ABE78D
:1003D000B4E10E94BD03AC01569547959A01ADEC7E
:1003E000BCEC0E94BD03969587959695879596954A
:1003F00087959C01220F331F880F991F880F991F23
:10040000880F991F820F931F481B590B405D408333
:10041000DF91CF9108958FEF8AB917B88EEF88B921
:1004200080E480937C008FEE80937A0010927B00B2
:100430008EE080937E0083EA84BD85E085BD78945C
:100440000E9453000E945C0080E70E9465000E94A9
:100450001A0180E80E94CB0080E091E00E948201B6
:100460008FE80E94CB008DE091E00E9482018FEC2A
:100470000E94CB008FE091E00E94820180EC0E94FC
:10048000CB0081E191E00E948201CFEF60911F01DA
:100490007091200180E090E00E94C2026B017C011B
:1004A0002EE336E047EC5FE30E9428030E949302AC
:1004B0006F3F710511F008F06C2F60931E0120E171
:1004C00038E549EF5EE3C701B6010E9428030E94A8
:1004D0009302DC01CB0164E271E00E94A7018CE889
:1004E0000E94CB0084E291E00E94820160911E0193
:1004F00070E080E090E00E94C40229EC38EC48EC07
:100500005EE30E9428030E949302DC01CB0161E2BA
:1005100071E00E94A7018CEC0E94CB0081E291E087
:100520000E948201B3CF0E94070388F09F5798F082
:10053000B92F9927B751B0F0E1F0660F771F881FE8
:10054000991F1AF0BA95C9F714C0B13091F00E9402
:100550002103B1E008950C942103672F782F882799
:10056000B85F39F0B93FCCF3869577956795B39529
:10057000D9F73EF490958095709561957F4F8F4F98
:100580009F4F0895E89409C097FB3EF4909580959D
:10059000709561957F4F8F4F9F4F9923A9F0F92F49
:1005A00096E9BB279395F695879577956795B795C7
:1005B000F111F8CFFAF4BB0F11F460FF1BC06F5FAD
:1005C0007F4F8F4F9F4F16C0882311F096E911C0BF
:1005D000772321F09EE8872F762F05C0662371F0E0
:1005E00096E8862F70E060E02AF09A95660F771FF4
:1005F000881FDAF7880F9695879597F9089557FD24
:100600009058440F551F59F05F3F71F04795880F80
:1006100097FB991F61F09F3F79F087950895121617
:1006200013061406551FF2CF4695F1DF08C01616C3
:1006300017061806991FF1CF869571056105089474
:100640000895E894BB2766277727CB0197F908958B
:100650000E943B030C94AC030E949E0338F00E945E
:10066000A50320F0952311F00C9495030C949B03A3
:1006700011240C9422030E94FF0270F3959FC1F392
:10068000950F50E0551F629FF001729FBB27F00D40
:10069000B11D639FAA27F00DB11DAA1F649F662795
:1006A000B00DA11D661F829F2227B00DA11D621FE4
:1006B000739FB00DA11D621F839FA00D611D221F9E
:1006C000749F3327A00D611D231F849F600D211D82
:1006D000822F762F6A2F11249F5750409AF0F1F005
:1006E00088234AF0EE0FFF1FBB1F661F771F881F6E
:1006F00091505040A9F79E3F510580F00C9495030E
:100700000C9422035F3FE4F3983ED4F386957795EB
:100710006795B795F795E7959F5FC1F7FE2B880F13
:10072000911D9695879597F9089597F99F6780E8A9
:1007300070E060E008959FEF80EC089500240A9433
:100740001616170618060906089500240A941216AC
:100750001306140605060895092E0394000C11F4DF
:10076000882352F0BB0F40F4BF2B11F460FF04C08C
:100770006F5F7F4F8F4F9F4F0895A29FB001B39F30
:10078000C001A39F700D811D1124911DB29F700D9A
:0C079000811D1124911D0895F894FFCFE5
:10079C0054656D70657261747572613A0043002521
:0E07AC000056656C2E204D6F746F723A00007F
:00000001FF
